:020000040000FA
:06000000A8EF01F0120060
:020006000000F8
:08000800D9CFE6FFE1CFD9FFDB
:10001000060EE126936A816A8A6A946A826A8A6A0B
:10002000956A836A8C6A0F0EC16E040EDB6A050E38
:10003000DB6AD950040FE96EDACFEAFF010ED880EF
:10004000EE54000EED5401E205D10F0EE66E81EC88
:1000500001F0E552D950040FE96EDACFEAFF010E44
:10006000EE1801E1ED500CE1010E836EF40EE66E28
:1000700081EC01F0E552060EE15C01E3EED0EBD03D
:10008000020EDB6A030EDB6AD950020FE96EDACF8B
:10009000EAFF090ED880EE54000EED5401E2D4D0F0
:1000A000320EE66E81EC01F0E552020EDBCF06F077
:1000B000030EDBCF07F0090E061801E1075041E0FF
:1000C000080E061801E1075039E0070E061801E195
:1000D000075031E0060E061801E1075029E0050E31
:1000E000061801E1075021E0040E061801E107504F
:1000F00019E0030E061801E1075011E0020E061880
:1001000001E1075009E0010E061801E1075001E086
:100110001BD0010E826E18D0020E826E15D0030E17
:10012000826E12D0040E826E0FD0050E826E0CD03D
:10013000060E826E09D0070E826E06D0080E826E01
:1001400003D0090E826E00D0010EDE6EDD6AD9CFBB
:10015000E9FFDACFEAFF090ED880EE54000EED5425
:100160006DE3C80EE66E81EC01F0E552000EDFCFC4
:1001700006F0010EDBCF07F0090E061801E107506B
:1001800041E0080E061801E1075039E0070E061895
:1001900001E1075031E0060E061801E1075029E0A1
:1001A000050E061801E1075021E0040E061801E1D2
:1001B000075019E0030E061801E1075011E0020E86
:1001C000061801E1075009E0010E061801E1075089
:1001D00001E02FD0010E816E2CD0020E816E29D04D
:1001E000030E816E26D0040E816E23D0050E816E23
:1001F00020D0060E816E1DD0070E816E1AD0080E1B
:10020000816E17D0090E816EFA0EE66E81EC01F058
:10021000E552090E825C0AE0020EDBCF0BF0030E02
:10022000DBCF0CF0010E0B24826E01D0826A816A52
:1002300000D0DF2A010E01E3DB2A89D7020EDB2A78
:10024000030E01E3DB2A20D7040EDB2A050E01E3AF
:10025000DB2AEFD6EAD6E16AE552E16EE552E7CF56
:04026000D9FF1200B0
:0C026400060EF66E000EF76E000EF86E2F
:1002700000010900F550856F0900F550866F03E114
:10028000856701D03DD00900F550806F0900F55019
:10029000816F0900F550826F09000900F550E96E81
:1002A0000900F550EA6E090009000900F550836F56
:1002B0000900F550846F09000900F6CF87F0F7CFE9
:1002C00088F0F8CF89F080C0F6FF81C0F7FF82C0C8
:1002D000F8FF0001835302E1845307E00900F55061
:1002E000EE6E8307F8E28407F9D787C0F6FF88C06F
:1002F000F7FF89C0F8FF00018507000E865BBFD7B6
:020300001200E9
:0E030200FF0EE3500E6EEF0E01D0F30EE76E0D
:10031000E72E88EF01F00C0E0D6EE76AE72E8EEFE8
:1003200001F00D2E8DEF01F00E2E86EF01F0120080
:10033000000EF36E00EE00F0060E01D81200EA6027
:1003400002D0EE6AFCD7F350E9601200EE6AFCD7E7
:1003500015EE00F025EE00F0F86A0A9C32EC01F090
:0C036000B6EC01F004EC00F0FBD712003A
:02036C0012007D
:020000040030CA
:0100010002FC
:010002001EDF
:010003001EDE
:010006008178
:00000001FF
